:020000020000FC
:0200000021C01D
:040028000C943E00F6
:100040000C94400008E00EBF0FE50DBF0FEF07BB9B
:1000500000E00ABB0EE806B900EE07B9789460E04C
:1000600070E080E090E0A0E0B0E0D0E00AE003BF04
:100070000DE70CBF02E009BF0C943C00369A1895BE
:1000800044B155B1C8E2652FC69FD00DE11DCDE149
:10009000C79FD00DE11DC1E2C89FD00DE11DC1E297
:1000A000C99FD00DE11DCDE1CA9FD00DE11DC8E271
:1000B000CB9FD00DE11DE8BBBA2FA92F982F872F1A
:0800C000762FE0E0D0E0189576
:00000001FF
